{
  "contractName": "MyTokenFactory",
  "abi": [
    {
      "constant": true,
      "inputs": [
        {
          "name": "",
          "type": "address"
        }
      ],
      "name": "isInstantiation",
      "outputs": [
        {
          "name": "",
          "type": "bool"
        }
      ],
      "payable": false,
      "stateMutability": "view",
      "type": "function"
    },
    {
      "constant": true,
      "inputs": [
        {
          "name": "",
          "type": "address"
        },
        {
          "name": "",
          "type": "uint256"
        }
      ],
      "name": "instantiations",
      "outputs": [
        {
          "name": "",
          "type": "address"
        }
      ],
      "payable": false,
      "stateMutability": "view",
      "type": "function"
    },
    {
      "constant": true,
      "inputs": [
        {
          "name": "creator",
          "type": "address"
        }
      ],
      "name": "getInstantiationCount",
      "outputs": [
        {
          "name": "",
          "type": "uint256"
        }
      ],
      "payable": false,
      "stateMutability": "view",
      "type": "function"
    },
    {
      "anonymous": false,
      "inputs": [
        {
          "indexed": false,
          "name": "sender",
          "type": "address"
        },
        {
          "indexed": false,
          "name": "instantiation",
          "type": "address"
        }
      ],
      "name": "ContractInstantiation",
      "type": "event"
    },
    {
      "constant": false,
      "inputs": [
        {
          "name": "_name",
          "type": "string"
        },
        {
          "name": "_symbol",
          "type": "string"
        }
      ],
      "name": "create",
      "outputs": [
        {
          "name": "tokenAddress",
          "type": "address"
        }
      ],
      "payable": false,
      "stateMutability": "nonpayable",
      "type": "function"
    }
  ],
  "bytecode": "0x608060405234801561001057600080fd5b50610ecd806100206000396000f3006080604052600436106100615763ffffffff7c0100000000000000000000000000000000000000000000000000000000600035041663198e2b8a81146100665780632f4f33161461012657806357183c82146101685780638f83847814610199575b600080fd5b34801561007257600080fd5b506040805160206004803580820135601f81018490048402850184019095528484526100fd94369492936024939284019190819084018382808284375050604080516020601f89358b018035918201839004830284018301909452808352979a9998810197919650918201945092508291508401838280828437509497506101d99650505050505050565b6040805173ffffffffffffffffffffffffffffffffffffffff9092168252519081900360200190f35b34801561013257600080fd5b5061015473ffffffffffffffffffffffffffffffffffffffff60043516610300565b604080519115158252519081900360200190f35b34801561017457600080fd5b506100fd73ffffffffffffffffffffffffffffffffffffffff60043516602435610315565b3480156101a557600080fd5b506101c773ffffffffffffffffffffffffffffffffffffffff60043516610359565b60408051918252519081900360200190f35b60008282336101e661042b565b73ffffffffffffffffffffffffffffffffffffffff82166040820152606080825284519082015283518190602080830191608084019188019080838360005b8381101561023d578181015183820152602001610225565b50505050905090810190601f16801561026a5780820380516001836020036101000a031916815260200191505b50838103825285518152855160209182019187019080838360005b8381101561029d578181015183820152602001610285565b50505050905090810190601f1680156102ca5780820380516001836020036101000a031916815260200191505b5095505050505050604051809103906000f0801580156102ee573d6000803e3d6000fd5b5090506102fa81610381565b92915050565b60006020819052908152604090205460ff1681565b60016020528160005260406000208181548110151561033057fe5b60009182526020909120015473ffffffffffffffffffffffffffffffffffffffff169150829050565b73ffffffffffffffffffffffffffffffffffffffff1660009081526001602052604090205490565b73ffffffffffffffffffffffffffffffffffffffff808216600081815260208181526040808320805460ff191660019081179091553390951680845285835281842080549687018155845292829020909401805473ffffffffffffffffffffffffffffffffffffffff191684179055835191825281019190915281517f4fb057ad4a26ed17a57957fa69c306f11987596069b89521c511fc9a894e6161929181900390910190a150565b604051610a668061043c833901905600608060405234801561001057600080fd5b50604051610a66380380610a6683398101604090815281516020808401519284015191840180519094939093019261004e91600391908601906100cb565b5081516100629060049060208501906100cb565b5069021e19e0c9bab24000006001819055600160a060020a038216600081815260208181526040808320859055805194855251929391927fddf252ad1be2c89b69c2b068fc378daa952ba7f163c4a11628f55a4df523b3ef9281900390910190a3505050610166565b828054600181600116156101000203166002900490600052602060002090601f016020900481019282601f1061010c57805160ff1916838001178555610139565b82800160010185558215610139579182015b8281111561013957825182559160200191906001019061011e565b50610145929150610149565b5090565b61016391905b80821115610145576000815560010161014f565b90565b6108f1806101756000396000f3006080604052600436106100b95763ffffffff7c010000000000000000000000000000000000000000000000000000000060003504166306fdde0381146100be578063095ea7b31461014857806318160ddd1461018057806323b872dd146101a75780632ff2e9dc146101d1578063313ce567146101e6578063661884631461021157806370a082311461023557806395d89b4114610256578063a9059cbb1461026b578063d73dd6231461028f578063dd62ed3e146102b3575b600080fd5b3480156100ca57600080fd5b506100d36102da565b6040805160208082528351818301528351919283929083019185019080838360005b8381101561010d5781810151838201526020016100f5565b50505050905090810190601f16801561013a5780820380516001836020036101000a031916815260200191505b509250505060405180910390f35b34801561015457600080fd5b5061016c600160a060020a0360043516602435610368565b604080519115158252519081900360200190f35b34801561018c57600080fd5b506101956103d2565b60408051918252519081900360200190f35b3480156101b357600080fd5b5061016c600160a060020a03600435811690602435166044356103d8565b3480156101dd57600080fd5b50610195610558565b3480156101f257600080fd5b506101fb610566565b6040805160ff9092168252519081900360200190f35b34801561021d57600080fd5b5061016c600160a060020a036004351660243561056b565b34801561024157600080fd5b50610195600160a060020a0360043516610664565b34801561026257600080fd5b506100d361067f565b34801561027757600080fd5b5061016c600160a060020a03600435166024356106da565b34801561029b57600080fd5b5061016c600160a060020a03600435166024356107d3565b3480156102bf57600080fd5b50610195600160a060020a0360043581169060243516610875565b6003805460408051602060026001851615610100026000190190941693909304601f810184900484028201840190925281815292918301828280156103605780601f1061033557610100808354040283529160200191610360565b820191906000526020600020905b81548152906001019060200180831161034357829003601f168201915b505050505081565b600160a060020a03338116600081815260026020908152604080832094871680845294825280832086905580518681529051929493927f8c5be1e5ebec7d5bd14f71427d1e84f3dd0314c0f7b2291e5b200ac8c7c3b925929181900390910190a350600192915050565b60015490565b6000600160a060020a03831615156103ef57600080fd5b600160a060020a03841660009081526020819052604090205482111561041457600080fd5b600160a060020a038085166000908152600260209081526040808320339094168352929052205482111561044757600080fd5b600160a060020a038416600090815260208190526040902054610470908363ffffffff6108a016565b600160a060020a0380861660009081526020819052604080822093909355908516815220546104a5908363ffffffff6108b216565b600160a060020a03808516600090815260208181526040808320949094558783168252600281528382203390931682529190915220546104eb908363ffffffff6108a016565b600160a060020a038086166000818152600260209081526040808320338616845282529182902094909455805186815290519287169391927fddf252ad1be2c89b69c2b068fc378daa952ba7f163c4a11628f55a4df523b3ef929181900390910190a35060019392505050565b69021e19e0c9bab240000081565b601281565b600160a060020a033381166000908152600260209081526040808320938616835292905290812054808311156105c857600160a060020a0333811660009081526002602090815260408083209388168352929052908120556105ff565b6105d8818463ffffffff6108a016565b600160a060020a033381166000908152600260209081526040808320938916835292905220555b600160a060020a0333811660008181526002602090815260408083209489168084529482529182902054825190815291517f8c5be1e5ebec7d5bd14f71427d1e84f3dd0314c0f7b2291e5b200ac8c7c3b9259281900390910190a35060019392505050565b600160a060020a031660009081526020819052604090205490565b6004805460408051602060026001851615610100026000190190941693909304601f810184900484028201840190925281815292918301828280156103605780601f1061033557610100808354040283529160200191610360565b6000600160a060020a03831615156106f157600080fd5b600160a060020a03331660009081526020819052604090205482111561071657600080fd5b600160a060020a03331660009081526020819052604090205461073f908363ffffffff6108a016565b600160a060020a033381166000908152602081905260408082209390935590851681522054610774908363ffffffff6108b216565b600160a060020a03808516600081815260208181526040918290209490945580518681529051919333909316927fddf252ad1be2c89b69c2b068fc378daa952ba7f163c4a11628f55a4df523b3ef92918290030190a350600192915050565b600160a060020a03338116600090815260026020908152604080832093861683529290529081205461080b908363ffffffff6108b216565b600160a060020a0333811660008181526002602090815260408083209489168084529482529182902085905581519485529051929391927f8c5be1e5ebec7d5bd14f71427d1e84f3dd0314c0f7b2291e5b200ac8c7c3b9259281900390910190a350600192915050565b600160a060020a03918216600090815260026020908152604080832093909416825291909152205490565b6000828211156108ac57fe5b50900390565b818101828110156108bf57fe5b929150505600a165627a7a723058209c856f5c590c013a6e762f03a7a53ff0076ee076a77d5b36d9a494a7199240a50029a165627a7a72305820284450cc79ae1f361c3ed77939b482e3d82c37bc2129cf436d25783033202c600029",
  "source": "pragma solidity ^0.4.21;\n\nimport \"./Factory.sol\";\nimport \"./MyToken.sol\";\n\n/// @title MyToken Factory - Allows creation of custom token.\n/// @author Nicolas frega - <nicolas.frega@srax.com>\n\ncontract MyTokenFactory is Factory {\n\n    /*\n     * Public functions\n     */\n    /// @dev Allows verified creation of custom token.\n    /// @param _name String for token name.\n    /// @param _symbol String for token symbol.\n    /// @return Returns token address.\n    function create(string _name, string _symbol)\n        public\n        returns (address tokenAddress)\n    {\n        tokenAddress = new MyToken(_name, _symbol, msg.sender);\n        register(tokenAddress);\n    }\n}\n",
  "sourcePath": "/home/nico/Desktop/public_repos/one_click_token/contracts/MyTokenFactory.sol",
  "compiler": {
    "name": "solc",
    "version": "0.4.23+commit.124ca40d.Emscripten.clang"
  },
  "schemaVersion": "2.0.0",
  "updatedAt": "2018-05-01T17:02:24.067Z"
}